:100000000C947C020C94A4020C94A4020C94A40200
:100010000C94A4020C94A4020C94A4020C94A402C8
:100020000C94A4020C94A4020C94410E0C94B00EF7
:100030000C94A4020C94A4020C94A4020C94A402A8
:100040000C94A4020C94A4020C94A4020C94A40298
:100050000C94E2100C94A4020C94A4020C94F70DDE
:100060000C94A4020C94A4020C94A4020C94A40278
:100070000C94A4020C94A4020C94A4020C94A40268
:100080000C94A4020C94A4020C94A4020C94A40258
:100090000C94A4020C94A4020C94A4020C94A40248
:1000A0000C94A4020C94A4020C94A40200407A10B4
:1000B000F35A00A0724E18090010A5D4E80000E819
:1000C0007648170000E40B54020000CA9A3B000077
:1000D00000E1F505000080969800000040420F0006
:1000E0000000A08601000000102700000000E803C7
:1000F000000000006400000000000A000000000092
:100100000100000000002C76D888DC674F0823DF50
:10011000C1DFAE59E1B1B796E5E3E453C63AE65123
:10012000997696E8E6C28426EB898C9B62ED407C4A
:100130006FFCEFBC9C9F40F2BAA56FA5F490055AE6
:100140002AF75C936B6CF9676DC11BFCE0E40D470B
:10015000FEF520E6B500D0ED902E0300943577052E
:100160000080841E080000204E0A000000C80C33E6
:100170003333330F986E12831141EF8D2114893B75
:10018000E65516CFFEE6DB18D1844B381BF77C1DF5
:10019000901DA4BBE424203284725E228100C9F148
:1001A00024ECA1E53D270000000000000000000055
:1001B0000000000000002A002B00280000000000C2
:1001C000000000000000000000000000000000002F
:1001D000000000000000000000000000000000001F
:1001E0000000000000002C001E0234022002210248
:1001F0002202240234002602270225022E023600A3
:100200002D003700380027001E001F0020002100AD
:10021000220023002400250026003302330036028A
:100220002E00370238021F020402050206020702EE
:10023000080209020A020B020C020D020E020F0252
:100240001002110212021302140215021602170202
:10025000180219021A021B021C021D022F00310093
:10026000300023022D0235000400050006000700BF
:10027000080009000A000B000C000D000E000F0022
:1002800010001100120013001400150016001700D2
:10029000180019001A001B001C001D002F0231025B
:1002A00030023502000000000000000000000000E5
:1002B000000000000000000000000000000000003E
:1002C000000000000000000000000000000000002E
:1002D000000000000000000000000000000000001E
:1002E000000000000000000000000000000000000E
:1002F00000000000000000000000000000000000FE
:1003000000000000000000000000000000000000ED
:1003100000000000000000000000000000000000DD
:1003200000000000000000000000000000000000CD
:1003300000000000000000000000000000000000BD
:1003400000000000000000000000000000000000AD
:10035000000000000000000000000000000000009D
:10036000000000000000000000000000000000008D
:10037000000000000000000000000000000000007D
:10038000000000000000000000000000000000006D
:10039000000000000000000000000000000000005D
:1003A000000000000000080B000202020000090427
:1003B00000000102020000052400100105240101D3
:1003C000010424020605240600010705810310002C
:1003D0004009040100020A00000007050202400073
:1003E0000007058302400000040309041201000213
:1003F000EF020140412337800001010203014172F5
:100400006475696E6F204C4C430041726475696E6F
:100410006F204D6963726F00000000002400270008
:100420002A002D00300000000000250028002B00CD
:100430002E003100000000002300260029002C00BF
:100440002F0004040404040304050202020204034E
:10045000020202020606060606060404020202045E
:1004600004040802011040804010204080408008B1
:100470000204018040201002011080102040402022
:100480000000000200090F0000030401000C00003E
:100490000000000000000000000000000000000557
:1004A000010906A1018502050719E029E7150025C4
:1004B00001750195088102050C9501750815002646
:1004C000FF00190029FF8100050795067508150032
:1004D00026E700190029E78100C0050C0901A101E8
:1004E0008504150026FF0319002AFF0395047510E3
:1004F0008100C0000911341411241FBECFEFDAE0CF
:10050000DEBFCDBF23E0A2E1B2E001C01D92A13366
:10051000B207E1F712E0A0E0B1E0E6E0FAE302C0E2
:1005200005900D92A231B107D9F712E0CBE7D2E0E6
:1005300004C02197FE010E94D717CA37D107C9F717
:100540000E940A120C94F61C0C940000FC0180918D
:100550009C02882311F13FB7F89482E08093E90070
:100560002091F200822F90E01816190614F481E011
:1005700090E0882339F0289A44E640939B0240910A
:10058000F1004083222339F02091F200211103C0B1
:100590002BE62093E8003FBF08958FEF9FEF08956B
:1005A000DC01FB0112962C9112978481958128170A
:1005B000190641F491818081813A31F49D7F81E077
:1005C000913009F080E008958132E1F79B3029F401
:1005D00082811F968C9381E008959A3099F78281E9
:1005E00050968C93F8CFDC01FB0188E4808389E48A
:1005F000818384E482831D969C911D979F709F5BED
:1006000093831D968D919C9124E0969587952A95CC
:10061000E1F78F708F5B848385E0089580917A0283
:1006200081110DC082E08093760284E0809377028E
:10063000109279021092780281E080937A0286E724
:1006400092E00895CF93DF9380919302811167C068
:1006500081E080938602809387022CE832E0309319
:1006600089022093880210928B0210928A0221E65E
:1006700031E0309383022093820210928E02109216
:100680008D021092900210928F02809391028093BB
:10069000920281EC80938C020E940E03FC01818106
:1006A00090918602482F490F5527551F4830510514
:1006B0009CF5A281B381109709F522E832E03383DB
:1006C0002283208120938402809385028091870277
:1006D000820F808320918802A22FB09189028A2FF5
:1006E000821B8917C8F481813D91C82FD0E0C05D7D
:1006F000DE4F38838F5F8183F2CFD90118962D9119
:100700003C91199721153105C1F722E832E019967D
:100710003C932E931897D5CF81E08093930282E883
:1007200092E0DF91CF91089581508F3008F047C05B
:10073000E82FF0E0E256FC4F0C94D717BB03BF0341
:10074000AD03B303B703DF03DF03DF03C203C80353
:10075000CC03D003D603DF03DA03809180008F77C8
:10076000809380000895809180008F7DF9CF8091E3
:100770008000877FF5CF84B58F7784BD089584B5D9
:100780008F7DFBCF809190008F77809390000895AC
:10079000809190008F7DF9CF80919000877FF5CF79
:1007A0008091C0008F778093C00008958091C00031
:1007B0008F7DF9CF8091C200877F8093C20008951A
:1007C000CF93DF93282F30E0F901E058FB4F84915D
:1007D000F901EF59FB4FD491F901EE5BFB4FC49146
:1007E000CC23A1F081110E949403EC2FF0E0EE0FD6
:1007F000FF1FEC5CFB4FA591B491EC91ED2381E0E0
:1008000090E009F480E0DF91CF91089580E090E0DE
:10081000FACF1F93CF93DF93282F30E0F901E058F0
:10082000FB4F8491F901EF59FB4FD491F901EE5B35
:10083000FB4FC491CC23A9F0162F81110E94940381
:10084000EC2FF0E0EE0FFF1FEA5DFB4FA591B49196
:100850008FB7F894EC91111108C0D095DE23DC938A
:100860008FBFDF91CF911F910895DE2BF8CFCF93EB
:10087000DF9390E0FC01EF59FB4F24918E5B9B4F7F
:10088000FC0184918823C9F090E0880F991FFC0136
:10089000E85EFB4FA591B491FC01EA5DFB4FC59169
:1008A000D49161110DC09FB7F8948C91209582234B
:1008B0008C938881282328839FBFDF91CF9108954F
:1008C000623051F49FB7F8943C91822F8095832336
:1008D0008C93E8812E2BEFCF8FB7F894EC912E2BD1
:1008E0002C938FBFEACF3FB7F8948091720290911A
:1008F0007302A0917402B091750226B5A89B05C041
:100900002F3F19F00196A11DB11D3FBFBA2FA92F8E
:10091000982F8827BC01CD01620F711D811D911D8B
:1009200042E0660F771F881F991F4A95D1F70895F7
:100930008F929F92AF92BF92CF92DF92EF92FF92EF
:100940006B017C010E9473044B015C01C114D10452
:10095000E104F104B9F00E947304681979098A0965
:100960009B09683E73408105910580F321E0C21A1E
:10097000D108E108F10888EE880E83E0981EA11CDA
:10098000B11CE4CFFF90EF90DF90CF90BF90AF907D
:100990009F908F90089540912802509129022091B4
:1009A00026023091270242175307B4F49091E800D1
:1009B0009570E1F39091E80092FD19C08093F100E9
:1009C000809128029091290201968F739927892B93
:1009D00019F48EEF8093E80080912802909129020B
:1009E0000196909329028093280281E0089580E087
:1009F0000895EF92FF920F931F93CF93DF93F82EFA
:100A0000192FE62E042F81E0860F880F0E94CB0459
:100A100083E00E94CB04CF2DD12FEC0EFD2EF11CD4
:100A2000CE15DF05B9F007FF13C0FE0184910E94C7
:100A3000CB04182F80E00E94CB04812321968111E2
:100A4000EFCFDF91CF911F910F91FF90EF9008951D
:100A50008881EDCF81E0F5CFDF92EF92FF920F9387
:100A60001F93CF93DF93D82E8A01EB017B01E40E15
:100A7000F51ECE15DF0559F0D7FE12C0FE01849198
:100A80000E94CB0421968111F4CF0FEF1FEFC80114
:100A9000DF91CF911F910F91FF90EF90DF9008951C
:100AA0008881EECFEF92FF920F931F93CF93DF9346
:100AB000FB012081213871F52381223259F5DC01B7
:100AC00012964C91248135814217130619F5EC01D9
:100AD0000B851C85F12CE12C0115110589F0F8011D
:100AE000448155816281738180E80E942C058F3F8B
:100AF000980749F0E80EF91ED8010D911C91ECCF32
:100B000081E08F87C701DF91CF911F910F91FF90F7
:100B1000EF90089590E080E0F6CFCF93DF93CDB7CC
:100B2000DEB769970FB6F894DEBF0FBECDBFFC01EC
:100B3000DB018C918F5F8C939E012D5F3F4F8DE089
:100B4000D9011D928A95E9F729E0298384E08A83F7
:100B500091E09D8383E08E832A8721E22B879C8707
:100B60009D879F8722E2288B27E02B8B25E02C8B0B
:100B70008E8B20E430E0388F2F8B998F82818B838E
:100B800095858685998B8A8B838180688D8B49E1D9
:100B900050E0BE016F5F7F4F80E00E942C05699698
:100BA0000FB6F894DEBF0FBECDBFDF91CF91089591
:100BB0000F931F93CF93DF931F92CDB7DEB782E0E1
:100BC000898342E450E066EA73E080E80E942C05E5
:100BD0000E940E03DC0112960D911C910115110566
:100BE00089F0D801ED91FC910280F381E02DBE01E6
:100BF0006F5F7F4FC801099597FD04C0F80100851C
:100C00001185ECCF89810F90DF91CF911F910F91CA
:100C100008952FB7F89487708093E9009091E800C9
:100C2000892F807295FF04C09091F20080E4891BA7
:100C30002FBF08957F928F929F92AF92BF92CF92D3
:100C4000DF92EF92FF920F931F93CF93DF93C82E03
:100C50008B017A0180919C02811110C08FEF9FEF70
:100C6000DF91CF911F910F91FF90EF90DF90CF9088
:100C7000BF90AF909F908F907F90089580912C02AD
:100C800080FF05C08091E00082608093E000CE2D5F
:100C9000DF2DD12C8AEFB82E8C2D8770982E8C2DBD
:100CA0008072882E8C2D8074782E9AE3A92E20973E
:100CB00019F4DD2009F452C08C2D0E94090681111F
:100CC0000AC0BA94BB2051F261E070E080E090E08D
:100CD0000E949804ECCF8C171D0611F00CF08C2F9D
:100CE0009FB7F8949092E9002091E80025FD02C09A
:100CF0009FBFDDCF282F30E0C21BD30B882029F007
:100D00008150A0F01092F100FBCFF801C7FC0AC09F
:100D1000815050F041914093F100FACF44914093BB
:100D2000F10031968150D0F7020F131FDD2021F022
:100D3000A092E800D12CDCCF8091E80085FD07C0AF
:100D4000A092E800DD24D394209791F2F3CF20976E
:100D500079F6772069F2A092E800CACF5D9A84E61E
:100D600080932B02C7017CCFAF92BF92CF92DF92CC
:100D7000EF92FF920F931F93CF93DF931F92CDB704
:100D8000DEB77C0169836A01590141E050E0BE0190
:100D90006F5F7F4FFC0183810E941A068C0197FDD3
:100DA0000BC0F7018381A501B60180640E941A0679
:100DB000080F191F97FD8C01C8010F90DF91CF918B
:100DC0001F910F91FF90EF90DF90CF90BF90AF9069
:100DD0000895615030F02091F100FC0120830196CC
:100DE000F8CF289A84E680939B020895AF92BF9231
:100DF000CF92DF92EF92FF920F931F93CF93DF93E7
:100E00006C017B018B01040F151FEB015E01AE1815
:100E1000BF08C017D10759F06991D601ED91FC9137
:100E20000190F081E02DC6010995892B79F7C50164
:100E3000DF91CF911F910F91FF90EF90DF90CF90B6
:100E4000BF90AF900895CF93DF93EC0180911D0187
:100E5000882331F083E00E941A061816190634F030
:100E600081E090E09B838A8380E090E0DF91CF91E6
:100E70000895CF93DF931F92CDB7DEB76983DC016E
:100E8000ED91FC910280F381E02D41E050E0BE0144
:100E90006F5F7F4F09950F90DF91CF91089583E0A9
:100EA0008093E9008091F200882319F08AE380930F
:100EB000E800089583E00E94090690E00895CF932A
:100EC000DF931F92CDB7DEB7FC018485958597FD32
:100ED00008C02FEF3FEF358724870F90DF91CF9128
:100EE0000895CE0101960E94A602019719F4898106
:100EF00090E0F3CF8FEF9FEFF0CF2FB7F894809172
:100F00009D0290919E02A0919F02B091A0022FBFDE
:100F10008093A9029093AA02A093AB02B093AC0273
:100F200081EA92E00E945F0797FF26C02FB7F894EE
:100F300080919D0290919E02A0919F02B091A0028B
:100F40002FBF4091A9025091AA026091AB0270910B
:100F5000AC02841B950BA60BB70B4091A5025091D8
:100F6000A6026091A7027091A80284179507A607B0
:100F7000B707B0F28FEF9FEF08950F931F93CF93B2
:100F8000DF931F92CDB7DEB78C01FC018485958578
:100F900097FF0BC0CE0101960E94A602019771F443
:100FA000898190E0F80195878487F801848595858B
:100FB0000F90DF91CF911F910F9108958FEF9FEFC9
:100FC000F1CFFC018485958597FD0BC09FB7F89400
:100FD00082E08093E9008091F2009FBF90E001964B
:100FE00008959FB7F89482E08093E9008091F20021
:100FF0009FBF90E00895CF93DF93EC010E942203FE
:10100000AE014C5F5F4F28E030E062E0DF91CF91AE
:101010000C94B406CF92DF92FF920F931F93CF935D
:10102000DF938C01F42EE62FF0E0EE0FFF1FEA5560
:10103000FE4FC590D490D801ED91FC910484F585C4
:10104000E02D6C2DC8010995EC01892B11F4F110EC
:1010500070C0D0FE0CC0D801ED91FC910484F585E0
:10106000E02D4F2D60EEC8010995C82BD92BD1FE7C
:101070000CC0D801ED91FC910484F585E02D4F2D35
:1010800061EEC8010995C82BD92BD2FE0CC0D8013E
:10109000ED91FC910484F585E02D4F2D62EEC801A1
:1010A0000995C82BD92BD3FE0CC0D801ED91FC912A
:1010B0000484F585E02D4F2D63EEC8010995C82BFA
:1010C000D92BD4FE0CC0D801ED91FC910484F58598
:1010D000E02D4F2D64EEC8010995C82BD92BD5FE04
:1010E0000CC0D801ED91FC910484F585E02D4F2DC5
:1010F00065EEC8010995C82BD92BD6FE0CC0D801C6
:10110000ED91FC910484F585E02D4F2D66EEC8012C
:101110000995C82BD92BD7FE0CC0D801ED91FC91B5
:101120000484F585E02D4F2D67EEC8010995C82B85
:10113000D92BCE01DF91CF911F910F91FF90DF90BE
:10114000CF900895FF920F931F93CF93DF93EC01FD
:10115000F62E41E00E940A088C01892BA9F0E88153
:10116000F9810284F385E02DCE01099540E06F2DD1
:10117000CE010E940A08892B39F0E881F9810284A6
:10118000F385E02DCE010995C801DF91CF911F9124
:101190000F91FF900895089590E080E008950F93D7
:1011A0001F93CF93DF93EB018A010E9422039801E2
:1011B000AE0164E0DF91CF911F910F910C94B406C2
:1011C000CF93DF93EC01EBE1F3E090E080E021913D
:1011D00031910196232B41F5880F991FFC01E75EA1
:1011E000FC4FD183C08348E050E06BE173E089E1BC
:1011F00093E00E94CF08E9E1F3E081E293E02281ED
:101200003381C217D30711F41382128232968E17DC
:101210009F07A9F748E050E06BE173E089E193E0B4
:10122000DF91CF910C94CF088430910581F6DBCF0C
:101230001F93CF93DF93C0912903D0912A03888114
:101240000E94E003182F110F182B89810E94E003E0
:1012500081279D81282F291B922F8D8321709270C9
:10126000291B8E819F81820F911D27FD9A959F8357
:101270008E838A85863918F48A858F5F8A87222330
:10128000B9F08C81882379F18E819F816A8170E029
:101290000E94C317892B39F58A856BE40E94B71722
:1012A00042E050E0481B51091A862130C9F4242F2E
:1012B0008E819F81820F911D27FD9A959F838E833A
:1012C000C0912B03D0912C0389859A850196843196
:1012D000910558F49A878987DF91CF911F910895DE
:1012E000242F2195E5CF20E0E3CF1A861986888147
:1012F0000E94E00329812817190601F581E090E09A
:101300009D838C838F819885019698878F838C33FA
:10131000910570F022E030E03D832C832B81222365
:1013200039F08734910520F083E090E09D838C8331
:101330008E81882389F281508E83CECF18861F82BA
:101340008C819D81029719F484E090E0EFCF8C812D
:101350009D81019769F78E8125E030E03D832C83E4
:101360009A81992329F3811103C084E18E83E0CF10
:1013700086E090E09D838C831E82DACF29E0289F4F
:10138000F001299FF00D1124CA01880F991F480F01
:10139000591FE40FF51FE61BF70BE05EFE4F80813F
:1013A000089522E030E0241B350B49E0489FF0010E
:1013B000499FF00D1124C901880F991F280F391F6B
:1013C000E20FF31FE25EFE4FE60FF71F80810895E4
:1013D0008F929F92AF92BF92CF92DF92EF92FF9245
:1013E0000F931F93CF93DF935C019EE2C92E92E08F
:1013F000D92EF12CE12C460110E000E0D0E0C0E055
:10140000AE01B801C701F5010995F401EC0FFD1F0C
:1014100080832196C330D10599F70F5F1F4FF3E00A
:101420008F0E911C0330110549F789E0C80ED11CBD
:10143000EA94EF2821F0EE24E394F12CDCCFAEE126
:10144000B1E0EEE2F2E081918D9382E0E733F807BC
:10145000D1F7E7E3F2E0A7E2B1E080E492E0219186
:101460002D938E179F07D9F7DF91CF911F910F9181
:10147000FF90EF90DF90CF90BF90AF909F908F90B4
:101480000895CF93DF938091390190913A01209193
:10149000370130913801821B930B90932403809382
:1014A00023030097F9F0D0E0C0E0181619066CF499
:1014B0008091230390912403C817D9079CF48EEBE5
:1014C00099E00E94E8092196F3CF8091230390913F
:1014D00024038C179D0734F481ED99E00E94E809FC
:1014E0002197F3CF8091390190913A01909338017F
:1014F00080933701DF91CF910895FC019C01285F13
:101500003F4F90E080E04481411101961482319672
:10151000E217F307C1F70895CF93DF938FEF92E0BF
:101520000E947D0AEC01892B21F08FEF92E00E944E
:10153000FB07CE01DF91CF910895CF93DF93DC01BC
:1015400090E2960F9830B0F414968C91149721E0A5
:1015500030E001C0220F9A95EAF7442341F0282B8E
:1015600014962C9381E090E0DF91CF91089520951F
:101570002823F6CFFD0136964423D1F0CD010C96F9
:10158000EF012991621771F3C817D907D1F790E0DD
:1015900080E02191211105C0A80FB91F16966C9308
:1015A000E1CF019686309105A1F790E080E0DCCF95
:1015B00090E080E02191621305C0A80FB91F169634
:1015C0001C92D0CF019686309105A1F7EECFCF9334
:1015D000DF9341E0682F8FEF92E00E949D0AEC01BB
:1015E000892B21F08FEF92E00E94FB07CE01DF9163
:1015F000CF910895FC0101900020E9F73197AF01E8
:10160000481B590BBC0181EA92E00C942307FF921E
:101610000F931F93CF93DF93F62E8A01EA0109906F
:101620000020E9F72197C41BD50B682F81EA92E0CF
:101630000E9439076F2D81EA92E00E9439076C2FD2
:1016400081EA92E00E9439070115110519F0C801DD
:101650000E94FA0A6AE081EA92E0DF91CF911F913D
:101660000F91FF900C943907A4E4B2E0EEE1F1E0B1
:1016700081918D9381E0E732F807D1F7E7E2F1E05D
:10168000ADE4B2E080E391E021912D938E179F07A6
:10169000D9F744E452E062E683E70C94070B0F931A
:1016A0001F93CF93DF93EC0188819981009759F0C4
:1016B0002A813B812617370730F081E0DF91CF91F7
:1016C0001F910F9108958B016F5F7F4F0E948819C2
:1016D000009759F0998388831B830A832C813D816D
:1016E000232B59F7FC011082E8CF80E0E7CFCF939E
:1016F000DF93EC0188819981009711F00E94FF1817
:10170000198218821D821C821B821A82DF91CF915E
:1017100008950F931F93CF93DF93082F162FCA01BD
:101720004AE064E472E00E947E14C4E4D2E00990CE
:101730000020E9F7C554D240602F81EA92E00E9470
:101740003907612F81EA92E00E9439076C2F81EA04
:1017500092E00E94390784E492E00E94FA0A6AE06B
:1017600081EA92E0DF91CF911F910F910C9439079C
:10177000BF92CF92DF92EF92FF920F931F93CF937E
:10178000DF938BE4C82E81E0D82E02E112E090E0D6
:10179000E92E91E0F92ED0E0C0E029E0B22EF6016A
:1017A0008081F2E0CF0ED11C0E94E003F80181930A
:1017B00091938F01F701219131917F018217930756
:1017C00059F0892B81F5809170028823D9F0AE0100
:1017D0006BE680E70E94890BF80132978081918146
:1017E000F7013297918380832196C930D105B9F6EC
:1017F000DF91CF911F910F91FF90EF90DF90CF90ED
:10180000BF9008958091420290914302B89EF001EA
:10181000B99EF00D1124E25EFE4FEC0FFD1F80819A
:101820000E94E70AD9CF8091420290914302B89E6C
:10183000F001B99EF00D1124E25EFE4FEC0FFD1F8A
:1018400040E060818FEF92E00E949D0A892B21F297
:101850008FEF92E00E94FB07BFCF0F931F93CF93B0
:10186000DF9300D0CDB7DEB7E0912903F0912A03D2
:1018700086819781628170E00E94C3178B018091FD
:101880002402909125028617970751F0681779076F
:101890000CF067C089EE90E00E94E0080E948C0A7C
:1018A0001093250200932402E0912B03F0912C0366
:1018B000848195819A83898389819A81039721F410
:1018C0008CE390E09087878384819581019711F064
:1018D0001582148289819A818530910509F444C06A
:1018E0008630910509F457C00297A1F580917002E6
:1018F000811130C081E090E020914202309143029A
:10190000232B11F090E080E09093430280934202F9
:10191000809125030E94E00304E010E0892B09F484
:1019200059C060E0809125030E94090466E970E0D7
:1019300080E090E00E94980461E0809125030E947D
:10194000090466E970E080E090E00E94980401508C
:10195000110939F70F900F90DF91CF911F910F91DF
:1019600008958AEE90E098CF8091420290914302D0
:1019700025E0289FF001299FF00D1124EF5BFE4F19
:1019800082810E94E70A0F900F90DF91CF911F9103
:101990000F910C948C0A8091390190913A01833017
:1019A0009105A8F4019690933A01809339010E9421
:1019B000410A4091390150913A016FE683E70F9057
:1019C0000F90DF91CF911F910F910C94890B90E0B4
:1019D00080E0E9CF61E0809125030E94090466E977
:1019E00070E080E090E00E94980460E08091250320
:1019F0000E94090466E970E080E090E00E9498048B
:101A00000150110939F7A6CFAF92BF92CF92DF9262
:101A1000EF92FF920F931F93CF93DF93CDB7DEB773
:101A2000A7970FB6F894DEBF0FBECDBF5C018FB78E
:101A3000F894C0909D02D0909E02E0909F02F0909A
:101A4000A0028FBF10E000E00436110529F0F50177
:101A500009950F5F1F4FF8CF2FB7F89460919D0243
:101A600070919E0280919F029091A0022FBF1BA2B5
:101A70001AA21DA21CA21FA21EA26C197D098E090A
:101A80009F090E94F21620E030E048EC52E40E94E8
:101A9000F1178E010F5F1F4F26E048E00E944214AD
:101AA0007C01009779F0FC0101900020E9F7319763
:101AB0008F01081B190BB801CE0182960E944F0BB3
:101AC000811170C0CE0182960E94770B1A82198212
:101AD0001C821B821E821D8260E170E0CE01019695
:101AE0000E944F0B811166C0CE0101960E94770BB8
:101AF000EAA0FBA0E114F10409F467C00EA11FA144
:101B000001151105B9F08D819E81080F191FB801CB
:101B1000CE0101960E944F0B882309F456C02981FB
:101B20003A818D819E81B701820F931F0E944E1AC8
:101B30001E830D830D811E810E5F1F4FB801CE01E4
:101B400001960E944F0B811145C0CE0101960E9463
:101B5000770B4D815E8169817A8181EA92E00E94F2
:101B6000230787EA91E00E94FA0A89819A81009707
:101B700011F00E94FF188AA19BA1009711F00E940A
:101B8000FF18A7960FB6F894DEBF0FBECDBFDF914A
:101B9000CF911F910F91FF90EF90DF90CF90BF906A
:101BA000AF9008951FA30EA3B7018AA19BA10E9425
:101BB0004E1A8CCF80E190E09E838D8363E971E0C3
:101BC00089819A810E944E1A93CFCE0101960E947C
:101BD000770BB0CF29813A818D819E8164EA71E0D3
:101BE000820F931F0E944E1A1E830D83B2CF1F9245
:101BF0000F920FB60F9211242F933F938F939F93C1
:101C0000AF93BF9380919D0290919E02A0919F02FD
:101C1000B091A0023091710223E0230F2D3758F5C7
:101C20000196A11DB11D2093710280939D02909396
:101C30009E02A0939F02B093A002809172029091A5
:101C40007302A0917402B09175020196A11DB11D9D
:101C50008093720290937302A0937402B093750202
:101C6000BF91AF919F918F913F912F910F900FBE98
:101C70000F901F90189526E8230F0296A11DB11D05
:101C8000D2CF1F920F920FB60F9211248F939F9372
:101C90008091E1009091E100937F9093E10083FFB8
:101CA0000FC01092E90091E09093EB001092EC00CD
:101CB00092E39093ED0010929C0298E09093F000D4
:101CC00082FF22C093E09093E9009091F200992363
:101CD00019F09AE39093E80090912B02992341F038
:101CE00090912B02915090932B02911101C05D981D
:101CF00090919B02992341F090919B029150909377
:101D00009B02911101C0289884FF18C08091E200C5
:101D10008E7E81608093E2008091E1008F7E8093CF
:101D2000E10080912C028E7E806180932C029F9135
:101D30008F910F900FBE0F901F90189580FFF7CFD7
:101D40008091E2008E7E80618093E2008091E100CC
:101D50008E7E8093E10080912C028E7E8160E5CFA3
:101D60001F920F920FB60F921124CF92DF92EF9233
:101D7000FF920F931F932F933F934F935F936F9314
:101D80007F938F939F93AF93BF93EF93FF93CF93E3
:101D9000DF93CDB7DEB76C97DEBFCDBF1092E90001
:101DA0008091E80083FF25C068E0CE0145960E943F
:101DB000E90682EF8093E8008D8987FF39C0909112
:101DC000E80090FFFCCF982F907609F034C19E89EF
:101DD0004F89588D2F89F88C911131C0803861F569
:101DE00080912D028093F1001092F1008EEF80938C
:101DF000E8006C960FB6F894DEBF0FBECDBFDF9142
:101E0000CF91FF91EF91BF91AF919F918F917F9172
:101E10006F915F914F913F912F911F910F91FF9083
:101E2000EF90DF90CF900F900FBE0F901F901895FE
:101E30009EEF9093E800C7CF1092F100D5CF91307C
:101E400059F48111D3CF4130510581F680912D0293
:101E50008D7F80932D02CACF933049F48111C6CF74
:101E60004130510519F680912D028260F2CF9530F4
:101E700041F48091E80080FFFCCF20682093E300CC
:101E8000B5CF963009F0A9C00B8D1C8D22E01092C1
:101E9000E9001092290210922802F2122EC010922C
:101EA0002702109226020E94D8051F8299E099838A
:101EB000FA8291E09E8390EA98879AEF9987209121
:101EC000280230912902275F3F4F3C832B838D836B
:101ED0001092E90010922902109228021093270212
:101EE0000093260249E050E0BE016F5F7F4F80E023
:101EF0000E942C050E94D80579CF109327020093E9
:101F000026020E940E03DC0112960D911C91011510
:101F1000110509F451C1D801ED91FC910480F581BE
:101F2000E02DBE016B5E7F4FC8010995009709F057
:101F30003EC1F80100851185EACFF3E0FF120EC023
:101F40008F89882309F440C0823061F440E86DE055
:101F50008AE094E00E94F904811148CF81E28093E5
:101F6000EB0047CF813029F440E86BE08EEF93E03F
:101F7000F1CF833099F70E940E03DC011296ED90A9
:101F8000FC908E010F5F1F4F6801E114F10479F09E
:101F9000D701ED91FC910680F781E02DB801C701D2
:101FA0000995080F111DF701E084F184EECFD801E7
:101FB0001C92F60101900020E9F73197BF016C19DE
:101FC0007D0940E0C601C6CF68EE73E0FB01449195
:101FD00050E080E80E942C0509CF973009F4BECF6D
:101FE000983021F481E08093F10000CF993009F01E
:101FF000FDCE837009F0B2CFE1E3F1E081E031E0A2
:1020000096E32191222371F08093E9003093EB0055
:10201000DF0111972C912093EC009093ED008F5FDE
:10202000873079F78EE78093EA001092EA008F8973
:1020300080939C02DBCE8B8D9C8D1092E9001092D8
:102040002902109228029093270280932602898DFC
:10205000811192C08E899D89913A49F4813209F0AB
:102060007DCF47E050E066E171E080E0B3CF913290
:1020700009F074CF833269F48F89988DB0E0A0E0C5
:102080008093120190931301A0931401B093150152
:10209000ADCE803269F48091E80082FFFCCF67E02A
:1020A00086E191E00E94E9068BEF8093E8009ECEE6
:1020B000823209F09BCE8F8980931D01EEEFFFE7FE
:1020C000859194918B3F9C4D51F1E0E0F8E0809137
:1020D000160190911701A0911801B0911901803B50
:1020E0009440A105B105F1F480911D0180FD1AC055
:1020F000EE3F8AE0F80789F587E797E791838083C9
:102100008091600080932A0288E19BE00FB6F894EA
:10211000A895809360000FBE9093600067CEEEEFAD
:10212000FAE0D5CF808191818737974709F05ECE5D
:10213000A8958091600088618093600080912A0258
:1021400080936000EE3F2AE0F20789F08091FE0A5A
:102150009091FF0A9183808349CE80819181873756
:10216000980751F29093FF0A8093FE0AC5CF109210
:10217000FF0A1092FE0A3ACE0E940E03DC0112966C
:102180000D911C910115110509F4E8CED801ED91CE
:10219000FC910190F081E02DBE016B5E7F4FC80184
:1021A0000995811123CEF80100851185EBCF181612
:1021B00019060CF41BCED2CEF1E0FF12BECE6CEEAF
:1021C00073E004CF1F920F920FB60F9211242F933A
:1021D0003F934F935F936F937F938F939F93AF93AF
:1021E000BF93EF93FF93E0914002F0914102099574
:1021F000FF91EF91BF91AF919F918F917F916F91DF
:102200005F914F913F912F910F900FBE0F901F90B4
:102210001895CF93DF931092A4021092A30288EE38
:1022200093E0A0E0B0E08093A5029093A602A09373
:10223000A702B093A8028DE691E09093A20280934A
:10224000A1028FEF9FEF9093AE028093AD021092A8
:102250000203109201038FE791E0909300038093B3
:10226000FF028091F702811113C01092F2021092C6
:10227000F1028FE994E09093F4028093F3028BE3F0
:1022800090E09093F6028093F50281E08093F7024C
:102290000E942203FC01A385B485109709F0A5C014
:1022A00081EF92E094878387858596852091F5025A
:1022B0003091F602820F931F9687858781E991E01E
:1022C00090931A038093190380911103811113C015
:1022D00010920C0310920B038AED94E090930E037E
:1022E00080930D0389E190E09093100380930F0396
:1022F00081E0809311030E942203FC01A385B48531
:10230000109709F07DC08BE093E0948783878585E3
:10231000968520910F0330911003820F931F9687AB
:10232000858710922A031092290310922C03109291
:102330002B038BE090E00E946318EC0182E188831C
:1023400083E1898384E08A831B821C821D821F8231
:102350001E821986188686E98A8762E082E10E94D9
:10236000370462E089810E943704D0932A03C09326
:1023700029038BE090E00E946318EC0184E18883DC
:1023800019821A821B821D821C821E8218861F825D
:1023900084E190E09A87898762E00E943704D093B5
:1023A0002C03C0932B0361E081E10E94370481E19B
:1023B00090E090932603809325038AEF90E090931A
:1023C0002803809327038091390190913A0120914D
:1023D000370130913801821B930B90932403809333
:1023E0002303DF91CF910895DC018D919C9111978A
:1023F0000097D1F781EF92E08D939C9355CFDC014C
:102400008D919C9111970097D1F78BE093E08D937C
:102410009C937DCF789484B5826084BD84B58160BF
:1024200084BD85B5826085BD85B5816085BD80919F
:102430006E00816080936E00109281008091810017
:10244000826080938100809181008160809381000F
:1024500080918000816080938000809191008260F3
:102460008093910080919100816080939100809190
:1024700090008160809390008091C100846080937F
:10248000C1008091C10082608093C1008091C10031
:1024900081608093C1008091C30081608093C300FC
:1024A0008091C00082608093C0008091C2008160F2
:1024B0008093C20080917A00846080937A0080913A
:1024C0007A00826080937A0080917A0081608093A4
:1024D0007A0080917A00806880937A0010929C0242
:1024E00010922D0210922C028091D700816080936F
:1024F000D70080EA8093D80089B5806189BD89B50D
:10250000826089BD09B400FEFDCF61E070E080E02B
:1025100090E00E9498048091D8008F7C8061809325
:10252000D8008091E000807F8093E0008091E100FE
:102530008E7E8093E1008DE08093E200559A209A90
:102540005D98289860E08EE10E943704CBE4D1E0EA
:102550001881229662E0812F0E94370461E0812F6A
:102560000E94090491E0CD35D90791F7AEE2B2E0BF
:1025700087E291E0EEE1F1E021912D938E179F0724
:10258000D9F7A7E3B2E0E7E2F1E081918D9381E032
:10259000E033F807D1F710925B02E0912903F09144
:1025A0002A0381E08483E0912B03F0912C03828342
:1025B000838328E139E030934102209340028093E5
:1025C0006F0080E1809381001092800080E49FE1A1
:1025D000909387008093860081E1809381008FEF44
:1025E00092E00E947D0A8FEF92E00E94FB073BE59C
:1025F000C32E32E0D32E42E0342E03EC11E054E43B
:10260000E52E52E0F52E6DE4A62E62E0B62E70E0C7
:10261000672E70E0772E4424439423E0522E81EA03
:1026200092E00E94E107181619060CF016C180917D
:1026300070029BE5892E92E0992ED0E0C0E08823BD
:1026400009F4E3C00E947D0797FD0AC08A30910516
:1026500039F0D4018D934D012196C931D10591F7FF
:10266000C55ADD4F188280915B0280935A026091B7
:102670005C026093590292E0F60101900020E9F7B4
:10268000AF014C555240292F30E02417350750F444
:10269000F901EE5BFD4F255A3D4FD9012C91208366
:1026A0009F5FEACF873669F12CF48136A1F045EFC0
:1026B00051E08BC0833709F468C08437C1F76C36AA
:1026C00009F496C06F3629F54091390150913A01CD
:1026D0006FE683E72FC04AEA51E06F3609F475C010
:1026E000633641F444EB51E061E680E70E94070B5A
:1026F000109270026114710409F491CF0E940000DD
:102700008CCF6336D1F06CF4613691F1623609F406
:1027100056C060330CF465E76093590242ED51E016
:1027200054C06E3659F16F3679F241E050E080E7DF
:10273000653679F70E94890BDDCF1F923F921F9279
:102740005F921F925F921F930F93FF92EF920E94EE
:10275000551A44E452E063E683E70E94070BEDB7A5
:10276000FEB73A960FB6F894FEBF0FBEEDBFC2CFCC
:10277000409142025091430261E6ABCF4AEC51E0F6
:102780006EE683E70E94070BB5CF6336D9F06F364C
:10279000F1F0623609F0BDCFAEE1B1E0E4E4F2E081
:1027A00081918D93AE16BF06D9F7EDE4F2E0A7E272
:1027B000B1E081918D9382E0E635F807D1F70E9470
:1027C000340B98CF42ED51E063E685E6DBCF84E43D
:1027D00092E00E94601490933A01809339010E9424
:1027E000410A4091390150913A016091590271CFEB
:1027F00088EB9BE00E94040D8DE29CE00E94040D9A
:102800004EED51E060915902E0CF0E947D0797FDA7
:102810000AC08A30910539F0D4018D934D0121967B
:10282000C631D10591F7C55ADD4F188290915B02F0
:1028300090935A0280915C0280935902913649F438
:102840008F3639F4409270024AEA51E062E780E73D
:1028500099CF41E052E06DE6FACF0E94B80B0E949A
:102860002D0C0E94410A46CFCF93DF93C9E2D3E0FB
:10287000888199810E94FF188A819B81DF91CF9185
:102880000C94FF18EF920F931F93CF93DF93E801FF
:1028900034E047FD34E1042E000C550B57FF03C014
:1028A000519541955109E32E022F242FAE010E942C
:1028B000AB14CE01DF91CF911F910F91EF9008954E
:1028C000FC0188279927E89421912032E9F32930E7
:1028D00010F02E30C8F32B3241F02D3239F46894C9
:1028E00004C00E948914820F911D219120532A3027
:1028F000C0F31EF4909581959F4F0895BB274A30F1
:1029000031F4992322F4BDE2909581959F4F0C9468
:1029100092147AE0979F902D879F802D910D11241E
:102920000895BB27FB015527AA27880F991FAA1FC7
:10293000A41710F0A41B83955051B9F7A05DAA33DA
:1029400008F0A95DA193009779F7B111B1931192A5
:10295000CB010C94E216A9E0B0E0E1EBF4E10C94B9
:1029600086176A01F22EB02E102FFBE3AF2EA016B1
:1029700008F41BE31F5F012F27E0AE014F5F5F4F9D
:102980000E940A16BC018981982F9970913009F430
:102990003FC09BE2E1FC04C09E2D9170E0FC3AC078
:1029A0005E2D5071E82FE87083FF46C084E09111DE
:1029B00001C083E0EF2DE81B8F1508F0E0E0D601A1
:1029C0008E2F20E2552351F1992329F0D6019C93B3
:1029D000C60101966C0196012D5F3F4FE2FE24C0B7
:1029E0008EE4D6018C9391E411969C9311971296E4
:1029F0008C93D9018E2F90E281111BC0E20FF32F2F
:102A0000F11D10828EEF9FEF2996ECE00C94A21737
:102A10009DE2C6CF90E2C4CF2D9381508111FCCFAF
:102A2000CE0ED11CE0E0D0CF8EE6D6018C9391E69D
:102A3000DBCF9D938150E0CF482F447082FF3DC093
:102A400084E0911101C083E08F1510F4EF2DE81B95
:102A5000D6018E2F20E2552309F1992329F0D601C2
:102A60009C93C60101966C0196012D5F3F4FE2FEDB
:102A70001BC089E4D6018C938EE411968C93119738
:102A800086E412968C93D9018E2F90E2882309F464
:102A9000B5CF9D938150FACF2D9381508111FCCFFA
:102AA000CE0ED11CE0E0D9CF89E6D6018C938EE61C
:102AB00011968C93119786E6E4CF9B0177FF02C0B5
:102AC00030E020E0A1E0B0E0911102C0B0E0A0E071
:102AD000F9013196AE0FBF1F8B2C912CBB2009F44E
:102AE00061C05401EFEFAE1ABE0AAA0DBB1DFA1663
:102AF0001B0619F014F04F2D4A1B511188C0E3FC3E
:102B000059C07601A42FB0E2A1114FC0C40ED11C50
:102B1000992309F45BC040E0D6011196F601908339
:102B20006D01552309F448C0012F060F9A81582FD3
:102B3000507184FF03C0913309F4015010160CF05A
:102B400047C0093008F008E0EEE2FE2E5B01A01A53
:102B5000B10885019194819491082F3F320729F49F
:102B6000D601FC92F60131966F016217730794F15A
:102B7000021713077CF5DB01A21BB30BAA24A39455
:102B8000B12CAC0EBD1EAA0DBB1D11968C9121500F
:102B90003109D601119628153905F4F0F601808324
:102BA0006D01DBCFB12CA12CA0CFF701B1937F0138
:102BB000A150AACF9111B0CFD601942F50E302C0FB
:102BC0005D9391509111FCCFC40ED11C40E0ACCF6D
:102BD00001E0BACF80E3DBCF6217730731F496339D
:102BE00088F4953311F4552369F0F6018083FD01D3
:102BF000842F90E2811108C0A40FB11D1C9290E0B7
:102C000080E002CF81E3F1CF91938150F3CF911116
:102C100083CF8ACF283008F027E03327DA01990FD5
:102C2000311D87FD916000966105710539F43260B0
:102C30002E5F3D9330E32A95E1F708959F3F30F0F2
:102C400080387105610509F03C5F3C5F3D93913030
:102C500008F08068911DDF93CF931F930F93FF922D
:102C6000EF92192F987F9695E92F96959695E90FF3
:102C7000FF27EA5FFE4F99273327EE24FF24A701A1
:102C8000E70105900894079428F4360FE71EF81E14
:102C9000491F511D660F771F881F991F0694A1F7C2
:102CA0000590079428F4E70EF81E491F561FC11D12
:102CB000770F881F991F661F0694A1F70590079448
:102CC00028F4F80E491F561FC71FD11D880F991FE2
:102CD000661F771F0694A1F70590079420F4490F0B
:102CE000561FC71FD81F990F661F771F881F06948E
:102CF000A9F784911095177041F0D695C79557950F
:102D00004795F794E7941A95C1F7ECEAF0E06894D8
:102D10001590159135916591959105907FE2739588
:102D2000E118F10A430B560BC90BD009C0F7E10CAF
:102D3000F11E431F561FC91FD01D7EF4703311F4BE
:102D40008A95E6CFE894015030F0080F0AF4002786
:102D5000021708F4202F2395022F7A3328F079E305
:102D60007D932A95E9F710C07D932A9589F60694FC
:102D700097956795379517951794E118F10A430BC6
:102D8000560BC90BD00998F023957E9173957A3331
:102D900008F070E37C932013B8F77E9170617D9307
:102DA00030F0839571E37D9370E32A95E1F7112468
:102DB000EF90FF900F911F91CF91DF91992787FDA1
:102DC00090950895DC01FC01672F71917723E1F75D
:102DD000329704C07C916D9370836291AE17BF07E8
:102DE000C8F30895E89409C097FB3EF49095809548
:102DF000709561957F4F8F4F9F4F9923A9F0F92FC1
:102E000096E9BB279395F695879577956795B7953E
:102E1000F111F8CFFAF4BB0F11F460FF1BC06F5F24
:102E20007F4F8F4F9F4F16C0882311F096E911C036
:102E3000772321F09EE8872F762F05C0662371F057
:102E400096E8862F70E060E02AF09A95660F771F6B
:102E5000881FDAF7880F9695879597F9089597F95F
:102E60009F6780E870E060E008959FEF80EC089530
:102E700000240A9416161706180609060895002459
:102E80000A9412161306140605060895092E0394D3
:102E9000000C11F4882352F0BB0F40F4BF2B11F447
:102EA00060FF04C06F5F7F4F8F4F9F4F089557FDA6
:102EB0009058440F551F59F05F3F71F04795880FA8
:102EC00097FB991F61F09F3F79F08795089512163F
:102ED00013061406551FF2CF4695F1DF08C01616EB
:102EE00017061806991FF1CF86957105610508949C
:102EF0000895E894BB2766277727CB0197F90895B3
:102F00002F923F924F925F926F927F928F929F92F9
:102F1000AF92BF92CF92DF92EF92FF920F931F93E7
:102F2000CF93DF93CDB7DEB7CA1BDB0B0FB6F89498
:102F3000DEBF0FBECDBF09942A88398848885F84D8
:102F40006E847D848C849B84AA84B984C884DF8049
:102F5000EE80FD800C811B81AA81B981CE0FD11D2D
:102F60000FB6F894DEBF0FBECDBFED010895991BDB
:102F700079E004C0991F961708F0961B881F7A9570
:102F8000C9F78095089597FB072E16F4009407D093
:102F900077FD09D00E94DD1707FC05D03EF490951F
:102FA00081959F4F0895709561957F4F0895EE0F1D
:102FB000FF1F0590F491E02D0994AA1BBB1B51E162
:102FC00007C0AA1FBB1FA617B70710F0A61BB70B99
:102FD000881F991F5A95A9F780959095BC01CD013E
:102FE00008950E9405180C9446170E943F1758F048
:102FF0000E94381740F029F45F3F29F00C942F17F6
:1030000051110C947A170C9435170E94571768F3D6
:103010009923B1F3552391F3951B550BBB27AA2791
:1030200062177307840738F09F5F5F4F220F331FCB
:10303000441FAA1FA9F335D00E2E3AF0E0E832D093
:1030400091505040E695001CCAF72BD0FE2F29D096
:10305000660F771F881FBB1F261737074807AB0768
:10306000B0E809F0BB0B802DBF01FF2793585F4FDD
:103070003AF09E3F510578F00C942F170C947A1774
:103080005F3FE4F3983ED4F3869577956795B795BF
:10309000F7959F5FC9F7880F911D9695879597F9CA
:1030A0000895E1E0660F771F881FBB1F6217730743
:1030B0008407BA0720F0621B730B840BBA0BEE1F58
:1030C00088F7E09508950F931F93CF93DF93823095
:1030D000910510F482E090E0E0912F03F09130032D
:1030E00030E020E0B0E0A0E0309799F42115310500
:1030F00009F44AC0281B390B24303105D8F58A81E0
:103100009B816115710589F1FB0193838283FE0127
:1031100011C0408151810281138148175907E0F0A5
:103120004817590799F4109761F012960C9312976B
:1031300013961C933296CF01DF91CF911F910F917F
:10314000089500932F0310933003F4CF2115310518
:1031500051F04217530738F0A901DB019A01BD0174
:10316000DF01F801C1CFEF01F9CF909330038093D5
:103170002F03CDCFFE01E20FF31F819391932250D5
:10318000310939832883D7CF20912D0330912E0325
:10319000232B41F420913D0130913E0130932E03C9
:1031A00020932D0320913B0130913C0121153105E5
:1031B00041F42DB73EB740913F0150914001241B8F
:1031C000350BE0912D03F0912E03E217F307A0F4E5
:1031D0002E1B3F0B2817390778F0AC014E5F5F4F6D
:1031E0002417350748F04E0F5F1F50932E0340936E
:1031F0002D03819391939FCFF0E0E0E09CCFCF939C
:10320000DF930097E9F0FC01329713821282A091BC
:103210002F03B0913003ED0130E020E01097A1F4CE
:1032200020813181820F931F20912D0330912E0335
:103230002817390709F061C0F0932E03E0932D039E
:10324000DF91CF910895EA01CE17DF07E8F54A81B3
:103250005B819E0141155105B1F7E901FB83EA83CA
:1032600049915991C40FD51FEC17FD0761F4808176
:1032700091810296840F951FE90199838883828149
:1032800093819B838A83F0E0E0E012968D919C917C
:1032900013970097B9F52D913C911197CD010296A6
:1032A000820F931F20912D0330912E032817390789
:1032B00039F6309751F51092300310922F03B093E6
:1032C0002E03A0932D03BCCFD383C28340815181B1
:1032D000840F951FC817D90761F44E5F5F4F88812F
:1032E0009981480F591F518340838A819B81938321
:1032F00082832115310509F0B0CFF0933003E093BC
:103300002F039ECFFD01DC01C0CF13821282D7CFE5
:10331000B0E0A0E0EEE8F9E10C9482178C01009790
:1033200051F4CB010E9463188C01C801CDB7DEB700
:10333000E0E10C949E17FC01E60FF71F9C01225060
:103340003109E217F30708F49DC0D901CD91DC9152
:103350001197C617D70798F0C530D10530F3CE01C5
:1033600004978617970708F3C61BD70B2297C193BC
:10337000D1936D937C93CF010E94FF18D6CF5B0150
:10338000AC1ABD0A4C018C0E9D1EA0912F03B0916A
:103390003003512C412CF12CE12C109731F5809108
:1033A0002D0390912E038815990509F05CC04616EF
:1033B000570608F058C080913B0190913C0100975E
:1033C00041F48DB79EB740913F0150914001841B5D
:1033D000950BE817F90708F055C0F0932E03E0931A
:1033E0002D03F90171836083A0CF8D919C9111977A
:1033F00012966C90129713967C901397A815B905A6
:1034000059F56C0142E0C40ED11CCA14DB0420F152
:10341000AC014A195B09DA011296159780F06282B5
:10342000738251834083D9016D937C93E114F1043D
:1034300071F0D7011396FC93EE93129776CF2296F4
:103440008C0F9D1FF90191838083F301EFCFF093DF
:103450003003E0932F0369CF4816590608F42C0176
:103460007D01D3019ACFCB010E9463187C010097A4
:1034700049F0AE01B8010E94451AC8010E94FF1828
:10348000870153CF10E000E050CFFB01DC0102C008
:1034900001900D9241505040D8F70895FB01DC0196
:1034A00001900D920020E1F70895AEE0B0E0EBE569
:1034B000FAE10C948E170D891E8986E08C831A839D
:1034C00009838FEF9FE79E838D83AE01475E5F4F39
:1034D0006F89788DCE0101960E94781A2F813885E8
:1034E000020F131FF80110822E96E4E00C94AA1725
:1034F000ABE0B0E0EEE7FAE10C9480177C013B0111
:103500008A01FC0117821682838181FFC8C1CE0126
:1035100001965C01F7019381F30193FD859193FF7F
:1035200081913F01882309F453C1853239F493FD19
:10353000859193FF81913F01853229F4B70190E095
:103540000E94681CE7CF912C212C312CFFE1F31550
:1035500038F08B3211F190F4803209F1833229F185
:1035600037FC3CC020ED280F2A3050F536FE20C035
:103570008AE0989E200D1124922E06C08D3291F083
:10358000803371F7689430F8F30193FD859193FFD0
:1035900081913F018111DACF21C0689431F868949C
:1035A00032F8F2CF689433F8EFCF689434F8ECCF68
:1035B000EAE02E9E200D1124222E689435F8E4CFE7
:1035C0008E3229F436FC04C1689436F8DDCF8C368F
:1035D00019F4689437F8D8CF8836B1F2982F9F7DC8
:1035E00095549330E0F08336A1F18337C1F18335F0
:1035F00009F063C02801F2E04F0E511CF801C080B1
:10360000D180692D70E036FC02C06FEF7FEFC601FC
:103610000E94521C4C01689437F882010AC00C5F6A
:103620001F4FFFE3F98388248394912C6501E8946C
:1036300037F833FE2DC0522C8114910471F55520BA
:1036400009F468CFB70180E290E00E94681C5A94A8
:10365000F6CFF801808189830E5F1F4FE4CF2801E8
:10366000F2E04F0E511CF801C080D180692D70E04E
:1036700036FC02C06FEF7FEFC6010E945D1C4C015B
:103680008201D5CFB70180E290E00E94681C2A94A5
:103690002814190409F0B0F7CECFF60137FC859154
:1036A00037FE81916F01B70190E00E94681C5110B4
:1036B0005A94F1E08F1A9108BFCF843619F08936F9
:1036C00009F077C0F80137FE6BC06081718182819B
:1036D00093810C5F1F4FF32DFF763F2E97FF09C09C
:1036E00090958095709561957F4F8F4F9F4F68940F
:1036F00037F82AE030E0A5010E94981CC82ECA18AD
:103700008C2C432C36FE0CC0E89440F8C91440F4CD
:1037100034FE05C032FC03C0F32DFE7E4F2E892CF3
:1037200044FE95C0FE01EC0DF11D8081803309F04F
:1037300087C0242D297E422E842D8870582E43FC6C
:1037400095C040FE8FC09C2C821418F42C0C922C37
:10375000981844FE91C0B70180E390E00E94681C75
:1037600042FE09C088E790E041FE02C088E590E093
:10377000B7010E94681CC91408F48AC0CA94D12CED
:103780009FEFC91AD90ACA0CDB1CF60182916F019E
:10379000B70190E00E94681CAC14BD04B1F74FCF94
:1037A00060817181072E000C880B990B0E5F1F4FF3
:1037B00092CFD32CE894D4F82AE030E0853739F161
:1037C000232D297FD22E8F3601F148F48835A9F0B8
:1037D000F701868197812B96E2E10C949C17803744
:1037E00049F08837A9F7D4FE02C06894D2F820E1E6
:1037F00030E00DC06894D4F8F6CF34FE03C0822FB9
:103800008660D82E20E132E002C028E030E0F801E6
:10381000D7FE0FC060817181828193810C5F1F4F41
:10382000A5010E94981CC82ECA183D2CE89437F8B0
:1038300067CF6081718190E080E00E5F1F4FF0CF15
:1038400042FC02C0839478CF8394839475CF842DF7
:10385000867809F471CFF6CFB70180E290E00E943C
:10386000681C83948214C0F3512C73CF522C5818C7
:10387000821408F46ECFF8CF842D867809F47BCFBC
:103880008BE241FE80E247FC8DE2B70190E071CF10
:10389000B70180E390E00E94681C9A946CCF8FEF90
:1038A0009FEF99CFFC010590615070400110D8F74F
:1038B000809590958E0F9F1F0895FC016150704078
:1038C00001900110D8F7809590958E0F9F1F089555
:1038D0000F931F93CF93DF93182F092FEB018B8149
:1038E00081FD09C01FEF0FEF812F902FDF91CF9146
:1038F0001F910F91089582FF14C02E813F818C810A
:103900009D81281739073CF4E881F981CF010196A0
:103910009983888310838E819F8101969F838E83F4
:10392000E3CFE885F985812F0995892BA1F3DACFBB
:10393000FA01AA27283051F1203181F1E8946F93E0
:103940006E7F6E5F7F4F8F4F9F4FAF4FB1E03ED086
:10395000B4E03CD0670F781F891F9A1FA11D680F24
:10396000791F8A1F911DA11D6A0F711D811D911D57
:10397000A11D20D009F468943F912AE0269F1124CC
:103980003019305D3193DEF6CF010895462F477030
:10399000405D4193B3E00FD0C9F7F6CF462F4F708B
:1039A000405D4A3318F0495D31FD4052419302D0E9
:1039B000A9F7EACFB4E0A69597958795779567958F
:1039C000BA95C9F700976105710508959B01AC018F
:1039D0000A2E06945795479537952795BA95C9F7B6
:1039E000620F731F841F951FA01D089512E0CBE77F
:1039F000D2E004C0FE010E94D7172196CC37D10730
:063A0000C9F7F894FFCFA6
:103A060001000000000000000000000000000000AF
:103A16000000FFFFFFFF00E10000000000006869F2
:103A26006A6B6C6D6E6F701E140907211A050815F6
:103A360000C1808100000003000300000031038004
:103A4600000405717273BCBD717273040003000239
:103A5600000A000600050009000700080000000033
:103A660000D0028D055205F302000000003907233D
:103A7600075A074F07E1075F07BD0700000000A2CE
:103A860008F606CC08CB087D0AFB079D0A00000055
:103A960000CF08457865637574696F6E2074696D2B
:103AA600653A20006D73000D0A00414D4B2072658A
:103AB6006164790061707020697320636C6F73694B
:103AC6006E670025642564256400596F204D616D7D
:103AD60061006865616465724572726F72003C6C64
:103AE6006174656E6379207465737420726573758D
:103AF6006C74733E006F70436F64654572726F72CB
:103B06000077616974696E6720666F7220617070F4
:023B16000000AD
:00000001FF
